:1000CF0053D9BF12013212014412015612016F129D
:1000DF000006E5EF20E118E5EFB4080C7F007E186D
:1000EF0012011843E60880FE7F007E781201185334
:1000FF00D9BFE4F5F9F5FA75EDFF43D940C2ED75B7
:09010F00F383D2AFE4F5EE80FBAE
:1001320053F1F343A440E4F5E143A51C75E2C0D2B8
:02014200862213
:1001440075B165E5B130E7FB75A90175EF06E4F516
:02015400B222D5
:0D01560075D84053D9BF53D9F175EDFF2284
:1000060053D1FEE4F5F475FB0475F702759B017593
:100016009ADFF5BD75C61875F38130EAFD43E6082B
:0400260075F38022CC
:09016F0075880175E407D2A8228D
:0300030002002ECA
:10002E00C0E0C0D0E5E4B40F04C286800EE5E4B4AF
:10003E000709D286D2A8D2AF75E40FD0D0D0E03265
:0300530002005652
:10005600C0E0C083C082C0D075D000C007E5C6B47A
:10006600181C30EDFDC2ED900000E5C5F0E0FFC3C1
:1000760094994002D292EFC394995002B292E5C687
:10008600B4082030EDFDC2ED900001E5C5F0E0FFBB
:10009600C394284004C293D294EFC394285004D248
:1000A60093C294E5C6B4180875F38075C608800B2C
:1000B600E5C6B4080975F38075C61875F383D007CD
:0900C600D0D0D082D083D0E0320A
:10011800E4F5C8538E9FC39FFFE49EF5CB8FCA7446
:0A012800FFF5CDF5CCD2ADD2CA220E
:03002B0002004E82
:03004E00C2CF32EC
:0300000002016397
:0C016300787FE4F6D8FD7581070200CF1C
:00000001FF
