:1000CF0053D9BF12014C12015E1201701201351289
:1000DF000189120006E5EF20E118E5EFB4080C7F67
:1000EF00007E1812011B43E60880FE7F007E781207
:1000FF00011B53D9BFE4F5F9F5FA75EDFF43D9406C
:0C010F00C2ED75F383D2AFE4F5EE80FB87
:10014C0053F1F343A45075E10143A51C75E2C0D2F1
:02015C008622F9
:10015E0075B165E5B130E7FB75A90175EF06E4F5FC
:02016E00B222BB
:0D01700075D84053D9BF53D9F175EDFF226A
:10013500759810758DF0438E08858D8B53890F4307
:070145008920D28ED299221D
:1000060053D1FEE4F5F475FB0475F702759B017593
:100016009ADFF5BD75C61875F38130EAFD43E6082B
:0400260075F38022CC
:0901890075880175E407D2A82273
:0300030002002ECA
:10002E00C0E0C0D0E5E4B40F04C286800EE5E4B4AF
:10003E000709D286D2A8D2AF75E40FD0D0D0E03265
:0300530002005652
:10005600C0E0C083C082C0D075D000C007E5C6B47A
:10006600181C30EDFDC2ED900000E5C5F0E0FFD3B1
:1000760094E04002D292EFC394E05002B292E5C6F9
:10008600B4082030EDFDC2ED900001E5C5F0E0FFBB
:10009600D394304004C293D294EFC394305004D228
:1000A60093C294E5C6B4180875F38075C608800B2C
:1000B600E5C6B4080975F38075C61875F383D007CD
:0900C600D0D0D082D083D0E0320A
:10011B00E4F5C8538E9FC39FFFE49EF5CB8FCA7443
:0A012B00FFF5CDF5CCD2ADD2CA220B
:03002B0002004E82
:03004E00C2CF32EC
:0300000002017D7D
:0C017D00787FE4F6D8FD7581070200CF02
:00000001FF
